{
  "contractName": "CryptoSportsToken",
  "abi": [
    {
      "constant": true,
      "inputs": [],
      "name": "promoCreatedCount",
      "outputs": [
        {
          "name": "",
          "type": "uint256"
        }
      ],
      "payable": false,
      "stateMutability": "view",
      "type": "function"
    },
    {
      "constant": true,
      "inputs": [],
      "name": "name",
      "outputs": [
        {
          "name": "",
          "type": "string"
        }
      ],
      "payable": false,
      "stateMutability": "pure",
      "type": "function"
    },
    {
      "constant": false,
      "inputs": [
        {
          "name": "_to",
          "type": "address"
        },
        {
          "name": "_tokenId",
          "type": "uint256"
        }
      ],
      "name": "approve",
      "outputs": [],
      "payable": false,
      "stateMutability": "nonpayable",
      "type": "function"
    },
    {
      "constant": true,
      "inputs": [],
      "name": "ceoAddress",
      "outputs": [
        {
          "name": "",
          "type": "address"
        }
      ],
      "payable": false,
      "stateMutability": "view",
      "type": "function"
    },
    {
      "constant": false,
      "inputs": [
        {
          "name": "_to",
          "type": "address"
        }
      ],
      "name": "payout",
      "outputs": [],
      "payable": false,
      "stateMutability": "nonpayable",
      "type": "function"
    },
    {
      "constant": true,
      "inputs": [],
      "name": "implementsERC721",
      "outputs": [
        {
          "name": "",
          "type": "bool"
        }
      ],
      "payable": false,
      "stateMutability": "pure",
      "type": "function"
    },
    {
      "constant": true,
      "inputs": [],
      "name": "totalSupply",
      "outputs": [
        {
          "name": "total",
          "type": "uint256"
        }
      ],
      "payable": false,
      "stateMutability": "view",
      "type": "function"
    },
    {
      "constant": false,
      "inputs": [
        {
          "name": "_from",
          "type": "address"
        },
        {
          "name": "_to",
          "type": "address"
        },
        {
          "name": "_tokenId",
          "type": "uint256"
        }
      ],
      "name": "transferFrom",
      "outputs": [],
      "payable": false,
      "stateMutability": "nonpayable",
      "type": "function"
    },
    {
      "constant": true,
      "inputs": [
        {
          "name": "_tokenId",
          "type": "uint256"
        }
      ],
      "name": "getPerson",
      "outputs": [
        {
          "name": "personName",
          "type": "string"
        },
        {
          "name": "sellingPrice",
          "type": "uint256"
        },
        {
          "name": "owner",
          "type": "address"
        }
      ],
      "payable": false,
      "stateMutability": "view",
      "type": "function"
    },
    {
      "constant": false,
      "inputs": [
        {
          "name": "_newCEO",
          "type": "address"
        }
      ],
      "name": "setCEO",
      "outputs": [],
      "payable": false,
      "stateMutability": "nonpayable",
      "type": "function"
    },
    {
      "constant": false,
      "inputs": [
        {
          "name": "_newCOO",
          "type": "address"
        }
      ],
      "name": "setCOO",
      "outputs": [],
      "payable": false,
      "stateMutability": "nonpayable",
      "type": "function"
    },
    {
      "constant": false,
      "inputs": [
        {
          "name": "_owner",
          "type": "address"
        },
        {
          "name": "_name",
          "type": "string"
        },
        {
          "name": "_price",
          "type": "uint256"
        }
      ],
      "name": "createPromoPerson",
      "outputs": [],
      "payable": false,
      "stateMutability": "nonpayable",
      "type": "function"
    },
    {
      "constant": false,
      "inputs": [
        {
          "name": "_name",
          "type": "string"
        }
      ],
      "name": "createContractPerson",
      "outputs": [],
      "payable": false,
      "stateMutability": "nonpayable",
      "type": "function"
    },
    {
      "constant": false,
      "inputs": [],
      "name": "CelebrityToken",
      "outputs": [],
      "payable": false,
      "stateMutability": "nonpayable",
      "type": "function"
    },
    {
      "constant": true,
      "inputs": [
        {
          "name": "_tokenId",
          "type": "uint256"
        }
      ],
      "name": "ownerOf",
      "outputs": [
        {
          "name": "owner",
          "type": "address"
        }
      ],
      "payable": false,
      "stateMutability": "view",
      "type": "function"
    },
    {
      "constant": true,
      "inputs": [
        {
          "name": "_owner",
          "type": "address"
        }
      ],
      "name": "balanceOf",
      "outputs": [
        {
          "name": "balance",
          "type": "uint256"
        }
      ],
      "payable": false,
      "stateMutability": "view",
      "type": "function"
    },
    {
      "constant": true,
      "inputs": [
        {
          "name": "_owner",
          "type": "address"
        }
      ],
      "name": "tokensOfOwner",
      "outputs": [
        {
          "name": "ownerTokens",
          "type": "uint256[]"
        }
      ],
      "payable": false,
      "stateMutability": "view",
      "type": "function"
    },
    {
      "constant": true,
      "inputs": [
        {
          "name": "",
          "type": "uint256"
        }
      ],
      "name": "personIndexToApproved",
      "outputs": [
        {
          "name": "",
          "type": "address"
        }
      ],
      "payable": false,
      "stateMutability": "view",
      "type": "function"
    },
    {
      "constant": true,
      "inputs": [],
      "name": "symbol",
      "outputs": [
        {
          "name": "",
          "type": "string"
        }
      ],
      "payable": false,
      "stateMutability": "pure",
      "type": "function"
    },
    {
      "constant": true,
      "inputs": [],
      "name": "NAME",
      "outputs": [
        {
          "name": "",
          "type": "string"
        }
      ],
      "payable": false,
      "stateMutability": "view",
      "type": "function"
    },
    {
      "constant": false,
      "inputs": [
        {
          "name": "_to",
          "type": "address"
        },
        {
          "name": "_tokenId",
          "type": "uint256"
        }
      ],
      "name": "transfer",
      "outputs": [],
      "payable": false,
      "stateMutability": "nonpayable",
      "type": "function"
    },
    {
      "constant": true,
      "inputs": [
        {
          "name": "",
          "type": "uint256"
        }
      ],
      "name": "personIndexToOwner",
      "outputs": [
        {
          "name": "",
          "type": "address"
        }
      ],
      "payable": false,
      "stateMutability": "view",
      "type": "function"
    },
    {
      "constant": true,
      "inputs": [],
      "name": "cooAddress",
      "outputs": [
        {
          "name": "",
          "type": "address"
        }
      ],
      "payable": false,
      "stateMutability": "view",
      "type": "function"
    },
    {
      "constant": false,
      "inputs": [
        {
          "name": "_tokenId",
          "type": "uint256"
        }
      ],
      "name": "takeOwnership",
      "outputs": [],
      "payable": false,
      "stateMutability": "nonpayable",
      "type": "function"
    },
    {
      "constant": true,
      "inputs": [
        {
          "name": "_tokenId",
          "type": "uint256"
        }
      ],
      "name": "priceOf",
      "outputs": [
        {
          "name": "price",
          "type": "uint256"
        }
      ],
      "payable": false,
      "stateMutability": "view",
      "type": "function"
    },
    {
      "constant": false,
      "inputs": [
        {
          "name": "_tokenId",
          "type": "uint256"
        }
      ],
      "name": "purchase",
      "outputs": [],
      "payable": true,
      "stateMutability": "payable",
      "type": "function"
    },
    {
      "constant": true,
      "inputs": [],
      "name": "SYMBOL",
      "outputs": [
        {
          "name": "",
          "type": "string"
        }
      ],
      "payable": false,
      "stateMutability": "view",
      "type": "function"
    },
    {
      "anonymous": false,
      "inputs": [
        {
          "indexed": false,
          "name": "tokenId",
          "type": "uint256"
        },
        {
          "indexed": false,
          "name": "name",
          "type": "string"
        },
        {
          "indexed": false,
          "name": "owner",
          "type": "address"
        }
      ],
      "name": "Birth",
      "type": "event"
    },
    {
      "anonymous": false,
      "inputs": [
        {
          "indexed": false,
          "name": "tokenId",
          "type": "uint256"
        },
        {
          "indexed": false,
          "name": "oldPrice",
          "type": "uint256"
        },
        {
          "indexed": false,
          "name": "newPrice",
          "type": "uint256"
        },
        {
          "indexed": false,
          "name": "prevOwner",
          "type": "address"
        },
        {
          "indexed": false,
          "name": "winner",
          "type": "address"
        },
        {
          "indexed": false,
          "name": "name",
          "type": "string"
        }
      ],
      "name": "TokenSold",
      "type": "event"
    },
    {
      "anonymous": false,
      "inputs": [
        {
          "indexed": false,
          "name": "from",
          "type": "address"
        },
        {
          "indexed": false,
          "name": "to",
          "type": "address"
        },
        {
          "indexed": false,
          "name": "tokenId",
          "type": "uint256"
        }
      ],
      "name": "Transfer",
      "type": "event"
    },
    {
      "anonymous": false,
      "inputs": [
        {
          "indexed": true,
          "name": "owner",
          "type": "address"
        },
        {
          "indexed": true,
          "name": "approved",
          "type": "address"
        },
        {
          "indexed": false,
          "name": "tokenId",
          "type": "uint256"
        }
      ],
      "name": "Approval",
      "type": "event"
    }
  ],
  "bytecode": "0x606060405266038d7ea4c6800060005566be78bd4c57d0006001556707d72165f25ed000600255341561003157600080fd5b612148806100406000396000f30060606040526004361061015f576000357c0100000000000000000000000000000000000000000000000000000000900463ffffffff16806305e455461461016457806306fdde031461018d578063095ea7b31461021b5780630a0f81681461025d5780630b7e9c44146102b25780631051db34146102eb57806318160ddd1461031857806323b872dd14610341578063246982c4146103a257806327d7874c146104785780632ba73c15146104b157806342287b66146104ea5780634955f2801461056f578063605ff295146105cc5780636352211e146105e157806370a08231146106445780638462151c146106915780639433a81e1461071f57806395d89b4114610782578063a3f4df7e14610810578063a9059cbb1461089e578063aa1d98af146108e0578063b047fb5014610943578063b2e6ceeb14610998578063b9186d7d146109bb578063efef39a1146109f2578063f76f8d7814610a0a575b600080fd5b341561016f57600080fd5b610177610a98565b6040518082815260200191505060405180910390f35b341561019857600080fd5b6101a0610a9e565b6040518080602001828103825283818151815260200191508051906020019080838360005b838110156101e05780820151818401526020810190506101c5565b50505050905090810190601f16801561020d5780820380516001836020036101000a031916815260200191505b509250505060405180910390f35b341561022657600080fd5b61025b600480803573ffffffffffffffffffffffffffffffffffffffff16906020019091908035906020019091905050610ae1565b005b341561026857600080fd5b610270610bb1565b604051808273ffffffffffffffffffffffffffffffffffffffff1673ffffffffffffffffffffffffffffffffffffffff16815260200191505060405180910390f35b34156102bd57600080fd5b6102e9600480803573ffffffffffffffffffffffffffffffffffffffff16906020019091905050610bd7565b005b34156102f657600080fd5b6102fe610c97565b604051808215151515815260200191505060405180910390f35b341561032357600080fd5b61032b610ca0565b6040518082815260200191505060405180910390f35b341561034c57600080fd5b6103a0600480803573ffffffffffffffffffffffffffffffffffffffff1690602001909190803573ffffffffffffffffffffffffffffffffffffffff16906020019091908035906020019091905050610cad565b005b34156103ad57600080fd5b6103c36004808035906020019091905050610cfb565b60405180806020018481526020018373ffffffffffffffffffffffffffffffffffffffff1673ffffffffffffffffffffffffffffffffffffffff168152602001828103825285818151815260200191508051906020019080838360005b8381101561043b578082015181840152602081019050610420565b50505050905090810190601f1680156104685780820380516001836020036101000a031916815260200191505b5094505050505060405180910390f35b341561048357600080fd5b6104af600480803573ffffffffffffffffffffffffffffffffffffffff16906020019091905050610e17565b005b34156104bc57600080fd5b6104e8600480803573ffffffffffffffffffffffffffffffffffffffff16906020019091905050610ef3565b005b34156104f557600080fd5b61056d600480803573ffffffffffffffffffffffffffffffffffffffff1690602001909190803590602001908201803590602001908080601f01602080910402602001604051908101604052809392919081815260200183838082843782019150505050505091908035906020019091905050610fcf565b005b341561057a57600080fd5b6105ca600480803590602001908201803590602001908080601f016020809104026020016040519081016040528093929190818152602001838380828437820191505050505050919050506110d0565b005b34156105d757600080fd5b6105df61113c565b005b34156105ec57600080fd5b61060260048080359060200190919050506111c0565b604051808273ffffffffffffffffffffffffffffffffffffffff1673ffffffffffffffffffffffffffffffffffffffff16815260200191505060405180910390f35b341561064f57600080fd5b61067b600480803573ffffffffffffffffffffffffffffffffffffffff16906020019091905050611239565b6040518082815260200191505060405180910390f35b341561069c57600080fd5b6106c8600480803573ffffffffffffffffffffffffffffffffffffffff16906020019091905050611282565b6040518080602001828103825283818151815260200191508051906020019060200280838360005b8381101561070b5780820151818401526020810190506106f0565b505050509050019250505060405180910390f35b341561072a57600080fd5b61074060048080359060200190919050506113b9565b604051808273ffffffffffffffffffffffffffffffffffffffff1673ffffffffffffffffffffffffffffffffffffffff16815260200191505060405180910390f35b341561078d57600080fd5b6107956113ec565b6040518080602001828103825283818151815260200191508051906020019080838360005b838110156107d55780820151818401526020810190506107ba565b50505050905090810190601f1680156108025780820380516001836020036101000a031916815260200191505b509250505060405180910390f35b341561081b57600080fd5b61082361142f565b6040518080602001828103825283818151815260200191508051906020019080838360005b83811015610863578082015181840152602081019050610848565b50505050905090810190601f1680156108905780820380516001836020036101000a031916815260200191505b509250505060405180910390f35b34156108a957600080fd5b6108de600480803573ffffffffffffffffffffffffffffffffffffffff16906020019091908035906020019091905050611468565b005b34156108eb57600080fd5b61090160048080359060200190919050506114a0565b604051808273ffffffffffffffffffffffffffffffffffffffff1673ffffffffffffffffffffffffffffffffffffffff16815260200191505060405180910390f35b341561094e57600080fd5b6109566114d3565b604051808273ffffffffffffffffffffffffffffffffffffffff1673ffffffffffffffffffffffffffffffffffffffff16815260200191505060405180910390f35b34156109a357600080fd5b6109b960048080359060200190919050506114f9565b005b34156109c657600080fd5b6109dc600480803590602001909190505061156e565b6040518082815260200191505060405180910390f35b610a08600480803590602001909190505061158b565b005b3415610a1557600080fd5b610a1d611937565b6040518080602001828103825283818151815260200191508051906020019080838360005b83811015610a5d578082015181840152602081019050610a42565b50505050905090810190601f168015610a8a5780820380516001836020036101000a031916815260200191505b509250505060405180910390f35b60095481565b610aa6611f7e565b6040805190810160405280600c81526020017f43727970746f53706f7274730000000000000000000000000000000000000000815250905090565b610aeb3382611970565b1515610af657600080fd5b816005600083815260200190815260200160002060006101000a81548173ffffffffffffffffffffffffffffffffffffffff021916908373ffffffffffffffffffffffffffffffffffffffff1602179055508173ffffffffffffffffffffffffffffffffffffffff163373ffffffffffffffffffffffffffffffffffffffff167f8c5be1e5ebec7d5bd14f71427d1e84f3dd0314c0f7b2291e5b200ac8c7c3b925836040518082815260200191505060405180910390a35050565b600760009054906101000a900473ffffffffffffffffffffffffffffffffffffffff1681565b600760009054906101000a900473ffffffffffffffffffffffffffffffffffffffff1673ffffffffffffffffffffffffffffffffffffffff163373ffffffffffffffffffffffffffffffffffffffff161480610c805750600860009054906101000a900473ffffffffffffffffffffffffffffffffffffffff1673ffffffffffffffffffffffffffffffffffffffff163373ffffffffffffffffffffffffffffffffffffffff16145b1515610c8b57600080fd5b610c94816119dc565b50565b60006001905090565b6000600a80549050905090565b610cb78382611970565b1515610cc257600080fd5b610ccc8282611aea565b1515610cd757600080fd5b610ce082611b56565b1515610ceb57600080fd5b610cf6838383611b8f565b505050565b610d03611f7e565b6000806000600a85815481101515610d1757fe5b90600052602060002090019050806000018054600181600116156101000203166002900480601f016020809104026020016040519081016040528092919081815260200182805460018160011615610100020316600290048015610dbc5780601f10610d9157610100808354040283529160200191610dbc565b820191906000526020600020905b815481529060010190602001808311610d9f57829003601f168201915b50505050509350600660008681526020019081526020016000205492506003600086815260200190815260200160002060009054906101000a900473ffffffffffffffffffffffffffffffffffffffff169150509193909250565b600760009054906101000a900473ffffffffffffffffffffffffffffffffffffffff1673ffffffffffffffffffffffffffffffffffffffff163373ffffffffffffffffffffffffffffffffffffffff16141515610e7357600080fd5b600073ffffffffffffffffffffffffffffffffffffffff168173ffffffffffffffffffffffffffffffffffffffff1614151515610eaf57600080fd5b80600760006101000a81548173ffffffffffffffffffffffffffffffffffffffff021916908373ffffffffffffffffffffffffffffffffffffffff16021790555050565b600760009054906101000a900473ffffffffffffffffffffffffffffffffffffffff1673ffffffffffffffffffffffffffffffffffffffff163373ffffffffffffffffffffffffffffffffffffffff16141515610f4f57600080fd5b600073ffffffffffffffffffffffffffffffffffffffff168173ffffffffffffffffffffffffffffffffffffffff1614151515610f8b57600080fd5b80600860006101000a81548173ffffffffffffffffffffffffffffffffffffffff021916908373ffffffffffffffffffffffffffffffffffffffff16021790555050565b6000600860009054906101000a900473ffffffffffffffffffffffffffffffffffffffff1673ffffffffffffffffffffffffffffffffffffffff163373ffffffffffffffffffffffffffffffffffffffff1614151561102d57600080fd5b61138860095410151561103f57600080fd5b839050600073ffffffffffffffffffffffffffffffffffffffff168173ffffffffffffffffffffffffffffffffffffffff16141561109d57600860009054906101000a900473ffffffffffffffffffffffffffffffffffffffff1690505b6000821115156110ad5760005491505b6009600081548092919060010191905055506110ca838284611d91565b50505050565b600860009054906101000a900473ffffffffffffffffffffffffffffffffffffffff1673ffffffffffffffffffffffffffffffffffffffff163373ffffffffffffffffffffffffffffffffffffffff1614151561112c57600080fd5b6111398130600054611d91565b50565b33600760006101000a81548173ffffffffffffffffffffffffffffffffffffffff021916908373ffffffffffffffffffffffffffffffffffffffff16021790555033600860006101000a81548173ffffffffffffffffffffffffffffffffffffffff021916908373ffffffffffffffffffffffffffffffffffffffff160217905550565b60006003600083815260200190815260200160002060009054906101000a900473ffffffffffffffffffffffffffffffffffffffff169050600073ffffffffffffffffffffffffffffffffffffffff168173ffffffffffffffffffffffffffffffffffffffff161415151561123457600080fd5b919050565b6000600460008373ffffffffffffffffffffffffffffffffffffffff1673ffffffffffffffffffffffffffffffffffffffff168152602001908152602001600020549050919050565b61128a611f92565b6000611294611f92565b60008060006112a287611239565b945060008514156112d45760006040518059106112bc5750595b908082528060200260200182016040525095506113af565b846040518059106112e25750595b908082528060200260200182016040525093506112fd610ca0565b925060009150600090505b82811115156113ab578673ffffffffffffffffffffffffffffffffffffffff166003600083815260200190815260200160002060009054906101000a900473ffffffffffffffffffffffffffffffffffffffff1673ffffffffffffffffffffffffffffffffffffffff16141561139e5780848381518110151561138757fe5b906020019060200201818152505081806001019250505b8080600101915050611308565b8395505b5050505050919050565b60056020528060005260406000206000915054906101000a900473ffffffffffffffffffffffffffffffffffffffff1681565b6113f4611f7e565b6040805190810160405280600b81526020017f53706f727473546f6b656e000000000000000000000000000000000000000000815250905090565b6040805190810160405280600c81526020017f43727970746f53706f727473000000000000000000000000000000000000000081525081565b6114723382611970565b151561147d57600080fd5b61148682611b56565b151561149157600080fd5b61149c338383611b8f565b5050565b60036020528060005260406000206000915054906101000a900473ffffffffffffffffffffffffffffffffffffffff1681565b600860009054906101000a900473ffffffffffffffffffffffffffffffffffffffff1681565b6000803391506003600084815260200190815260200160002060009054906101000a900473ffffffffffffffffffffffffffffffffffffffff16905061153e82611b56565b151561154957600080fd5b6115538284611aea565b151561155e57600080fd5b611569818385611b8f565b505050565b600060066000838152602001908152602001600020549050919050565b60008060008060006003600087815260200190815260200160002060009054906101000a900473ffffffffffffffffffffffffffffffffffffffff169450339350600660008781526020019081526020016000205492508373ffffffffffffffffffffffffffffffffffffffff168573ffffffffffffffffffffffffffffffffffffffff161415151561161d57600080fd5b61162684611b56565b151561163157600080fd5b82341015151561164057600080fd5b61165561164e84605e611f0f565b6064611f4a565b91506116613484611f65565b905060015483101561169e5761168261167b8460c8611f0f565b605e611f4a565b6006600088815260200190815260200160002081905550611707565b6002548310156116d9576116bd6116b6846078611f0f565b605e611f4a565b6006600088815260200190815260200160002081905550611706565b6116ee6116e7846073611f0f565b605e611f4a565b60066000888152602001908152602001600020819055505b5b611712858588611b8f565b3073ffffffffffffffffffffffffffffffffffffffff168573ffffffffffffffffffffffffffffffffffffffff16141515611788578473ffffffffffffffffffffffffffffffffffffffff166108fc839081150290604051600060405180830381858888f19350505050151561178757600080fd5b5b7e8201e7bcbf010c2c07de59d6e97cb7e3cf67a46125c49cbc89b9d2cde1f48f8684600660008a8152602001908152602001600020548888600a8c8154811015156117cf57fe5b9060005260206000209001600001604051808781526020018681526020018581526020018473ffffffffffffffffffffffffffffffffffffffff1673ffffffffffffffffffffffffffffffffffffffff1681526020018373ffffffffffffffffffffffffffffffffffffffff1673ffffffffffffffffffffffffffffffffffffffff168152602001806020018281038252838181546001816001161561010002031660029004815260200191508054600181600116156101000203166002900480156118dc5780601f106118b1576101008083540402835291602001916118dc565b820191906000526020600020905b8154815290600101906020018083116118bf57829003601f168201915b505097505050505050505060405180910390a13373ffffffffffffffffffffffffffffffffffffffff166108fc829081150290604051600060405180830381858888f19350505050151561192f57600080fd5b505050505050565b6040805190810160405280600b81526020017f53706f727473546f6b656e00000000000000000000000000000000000000000081525081565b60006003600083815260200190815260200160002060009054906101000a900473ffffffffffffffffffffffffffffffffffffffff1673ffffffffffffffffffffffffffffffffffffffff168373ffffffffffffffffffffffffffffffffffffffff1614905092915050565b600073ffffffffffffffffffffffffffffffffffffffff168173ffffffffffffffffffffffffffffffffffffffff161415611a8f57600760009054906101000a900473ffffffffffffffffffffffffffffffffffffffff1673ffffffffffffffffffffffffffffffffffffffff166108fc3073ffffffffffffffffffffffffffffffffffffffff16319081150290604051600060405180830381858888f193505050501515611a8a57600080fd5b611ae7565b8073ffffffffffffffffffffffffffffffffffffffff166108fc3073ffffffffffffffffffffffffffffffffffffffff16319081150290604051600060405180830381858888f193505050501515611ae657600080fd5b5b50565b60008273ffffffffffffffffffffffffffffffffffffffff166005600084815260200190815260200160002060009054906101000a900473ffffffffffffffffffffffffffffffffffffffff1673ffffffffffffffffffffffffffffffffffffffff1614905092915050565b60008073ffffffffffffffffffffffffffffffffffffffff168273ffffffffffffffffffffffffffffffffffffffff1614159050919050565b600460008373ffffffffffffffffffffffffffffffffffffffff1673ffffffffffffffffffffffffffffffffffffffff16815260200190815260200160002060008154809291906001019190505550816003600083815260200190815260200160002060006101000a81548173ffffffffffffffffffffffffffffffffffffffff021916908373ffffffffffffffffffffffffffffffffffffffff160217905550600073ffffffffffffffffffffffffffffffffffffffff168373ffffffffffffffffffffffffffffffffffffffff16141515611ced57600460008473ffffffffffffffffffffffffffffffffffffffff1673ffffffffffffffffffffffffffffffffffffffff16815260200190815260200160002060008154809291906001900391905055506005600082815260200190815260200160002060006101000a81549073ffffffffffffffffffffffffffffffffffffffff02191690555b7fddf252ad1be2c89b69c2b068fc378daa952ba7f163c4a11628f55a4df523b3ef838383604051808473ffffffffffffffffffffffffffffffffffffffff1673ffffffffffffffffffffffffffffffffffffffff1681526020018373ffffffffffffffffffffffffffffffffffffffff1673ffffffffffffffffffffffffffffffffffffffff168152602001828152602001935050505060405180910390a1505050565b611d99611fa6565b60006020604051908101604052808681525091506001600a8054806001018281611dc39190611fc0565b916000526020600020900160008590919091506000820151816000019080519060200190611df2929190611fec565b5050500390508063ffffffff1681141515611e0c57600080fd5b7fb3b0cf861f168bcdb275c69da97b2543631552ba562628aa3c7317d4a6089ef281868660405180848152602001806020018373ffffffffffffffffffffffffffffffffffffffff1673ffffffffffffffffffffffffffffffffffffffff168152602001828103825284818151815260200191508051906020019080838360005b83811015611ea8578082015181840152602081019050611e8d565b50505050905090810190601f168015611ed55780820380516001836020036101000a031916815260200191505b5094505050505060405180910390a1826006600083815260200190815260200160002081905550611f0860008583611b8f565b5050505050565b6000806000841415611f245760009150611f43565b8284029050828482811515611f3557fe5b04141515611f3f57fe5b8091505b5092915050565b6000808284811515611f5857fe5b0490508091505092915050565b6000828211151515611f7357fe5b818303905092915050565b602060405190810160405280600081525090565b602060405190810160405280600081525090565b602060405190810160405280611fba61206c565b81525090565b815481835581811511611fe757818360005260206000209182019101611fe69190612080565b5b505050565b828054600181600116156101000203166002900490600052602060002090601f016020900481019282601f1061202d57805160ff191683800117855561205b565b8280016001018555821561205b579182015b8281111561205a57825182559160200191906001019061203f565b5b50905061206891906120af565b5090565b602060405190810160405280600081525090565b6120ac91905b808211156120a8576000808201600061209f91906120d4565b50600101612086565b5090565b90565b6120d191905b808211156120cd5760008160009055506001016120b5565b5090565b90565b50805460018160011615610100020316600290046000825580601f106120fa5750612119565b601f01602090049060005260206000209081019061211891906120af565b5b505600a165627a7a723058203499c9d0dd923f3a2e6e55b21c7d01b699664e686428067ddec10fe1bd0895440029",
  "source": "pragma solidity ^0.4.18; // solhint-disable-line\r\n\r\nimport \"./ERC721.sol\";\r\n\r\ncontract CryptoSportsToken is ERC721 {\r\n\r\n  /*** EVENTS ***/\r\n\r\n  /// @dev The Birth event is fired whenever a new person comes into existence.\r\n  event Birth(uint256 tokenId, string name, address owner);\r\n\r\n  /// @dev The TokenSold event is fired whenever a token is sold.\r\n  event TokenSold(uint256 tokenId, uint256 oldPrice, uint256 newPrice, address prevOwner, address winner, string name);\r\n\r\n  /// @dev Transfer event as defined in current draft of ERC721. \r\n  ///  ownership is assigned, including births.\r\n  event Transfer(address from, address to, uint256 tokenId);\r\n\r\n  /*** CONSTANTS ***/\r\n\r\n  /// @notice Name and symbol of the non fungible token, as defined in ERC721.\r\n  string public constant NAME = \"CryptoSports\"; // solhint-disable-line\r\n  string public constant SYMBOL = \"SportsToken\"; // solhint-disable-line\r\n\r\n  uint256 private startingPrice = 0.001 ether;\r\n  uint256 private constant PROMO_CREATION_LIMIT = 5000;\r\n  uint256 private firstStepLimit =  0.053613 ether;\r\n  uint256 private secondStepLimit = 0.564957 ether;\r\n\r\n  /*** STORAGE ***/\r\n\r\n  /// @dev A mapping from person IDs to the address that owns them. All persons have\r\n  ///  some valid owner address.\r\n  mapping (uint256 => address) public personIndexToOwner;\r\n\r\n  // @dev A mapping from owner address to count of tokens that address owns.\r\n  //  Used internally inside balanceOf() to resolve ownership count.\r\n  mapping (address => uint256) private ownershipTokenCount;\r\n\r\n  /// @dev A mapping from PersonIDs to an address that has been approved to call\r\n  ///  transferFrom(). Each Person can only have one approved address for transfer\r\n  ///  at any time. A zero value means no approval is outstanding.\r\n  mapping (uint256 => address) public personIndexToApproved;\r\n\r\n  // @dev A mapping from PersonIDs to the price of the token.\r\n  mapping (uint256 => uint256) private personIndexToPrice;\r\n\r\n  // The addresses of the accounts (or contracts) that can execute actions within each roles.\r\n  address public ceoAddress;\r\n  address public cooAddress;\r\n\r\n  uint256 public promoCreatedCount;\r\n\r\n  /*** DATATYPES ***/\r\n  struct Person {\r\n    string name;\r\n  }\r\n\r\n  Person[] private persons;\r\n\r\n  /*** ACCESS MODIFIERS ***/\r\n  /// @dev Access modifier for CEO-only functionality\r\n  modifier onlyCEO() {\r\n    require(msg.sender == ceoAddress);\r\n    _;\r\n  }\r\n\r\n  /// @dev Access modifier for COO-only functionality\r\n  modifier onlyCOO() {\r\n    require(msg.sender == cooAddress);\r\n    _;\r\n  }\r\n\r\n  /// Access modifier for contract owner only functionality\r\n  modifier onlyCLevel() {\r\n    require(\r\n      msg.sender == ceoAddress ||\r\n      msg.sender == cooAddress\r\n    );\r\n    _;\r\n  }\r\n\r\n  /*** CONSTRUCTOR ***/\r\n  function CelebrityToken() public {\r\n    ceoAddress = msg.sender;\r\n    cooAddress = msg.sender;\r\n  }\r\n\r\n  /*** PUBLIC FUNCTIONS ***/\r\n  /// @notice Grant another address the right to transfer token via takeOwnership() and transferFrom().\r\n  /// @param _to The address to be granted transfer approval. Pass address(0) to\r\n  ///  clear all approvals.\r\n  /// @param _tokenId The ID of the Token that can be transferred if this call succeeds.\r\n  /// @dev Required for ERC-721 compliance.\r\n  function approve(\r\n    address _to,\r\n    uint256 _tokenId\r\n  ) public {\r\n    // Caller must own token.\r\n    require(_owns(msg.sender, _tokenId));\r\n\r\n    personIndexToApproved[_tokenId] = _to;\r\n\r\n    Approval(msg.sender, _to, _tokenId);\r\n  }\r\n\r\n  /// For querying balance of a particular account\r\n  /// @param _owner The address for balance query\r\n  /// @dev Required for ERC-721 compliance.\r\n  function balanceOf(address _owner) public view returns (uint256 balance) {\r\n    return ownershipTokenCount[_owner];\r\n  }\r\n\r\n  /// @dev Creates a new promo Person with the given name, with given _price and assignes it to an address.\r\n  function createPromoPerson(address _owner, string _name, uint256 _price) public onlyCOO {\r\n    require(promoCreatedCount < PROMO_CREATION_LIMIT);\r\n\r\n    address personOwner = _owner;\r\n    if (personOwner == address(0)) {\r\n      personOwner = cooAddress;\r\n    }\r\n\r\n    if (_price <= 0) {\r\n      _price = startingPrice;\r\n    }\r\n\r\n    promoCreatedCount++;\r\n    _createPerson(_name, personOwner, _price);\r\n  }\r\n\r\n  /// @dev Creates a new Person with the given name.\r\n  function createContractPerson(string _name) public onlyCOO {\r\n    _createPerson(_name, address(this), startingPrice);\r\n  }\r\n\r\n  /// @notice Returns all the relevant information about a specific person.\r\n  /// @param _tokenId The tokenId of the person of interest.\r\n  function getPerson(uint256 _tokenId) public view returns (\r\n    string personName,\r\n    uint256 sellingPrice,\r\n    address owner\r\n  ) {\r\n    Person storage person = persons[_tokenId];\r\n    personName = person.name;\r\n    sellingPrice = personIndexToPrice[_tokenId];\r\n    owner = personIndexToOwner[_tokenId];\r\n  }\r\n\r\n  function implementsERC721() public pure returns (bool) {\r\n    return true;\r\n  }\r\n\r\n  /// @dev Required for ERC-721 compliance.\r\n  function name() public pure returns (string) {\r\n    return NAME;\r\n  }\r\n\r\n  /// For querying owner of token\r\n  /// @param _tokenId The tokenID for owner inquiry\r\n  /// @dev Required for ERC-721 compliance.\r\n  function ownerOf(uint256 _tokenId)\r\n    public\r\n    view\r\n    returns (address owner)\r\n  {\r\n    owner = personIndexToOwner[_tokenId];\r\n    require(owner != address(0));\r\n  }\r\n\r\n  function payout(address _to) public onlyCLevel {\r\n    _payout(_to);\r\n  }\r\n\r\n  // Allows someone to send ether and obtain the token\r\n  function purchase(uint256 _tokenId) public payable {\r\n    address oldOwner = personIndexToOwner[_tokenId];\r\n    address newOwner = msg.sender;\r\n\r\n    uint256 sellingPrice = personIndexToPrice[_tokenId];\r\n\r\n    // Making sure token owner is not sending to self\r\n    require(oldOwner != newOwner);\r\n\r\n    // Safety check to prevent against an unexpected 0x0 default.\r\n    require(_addressNotNull(newOwner));\r\n\r\n    // Making sure sent amount is greater than or equal to the sellingPrice\r\n    require(msg.value >= sellingPrice);\r\n\r\n    uint256 payment = uint256(SafeMath.div(SafeMath.mul(sellingPrice, 94), 100));\r\n    uint256 purchaseExcess = SafeMath.sub(msg.value, sellingPrice);\r\n\r\n    // Update prices\r\n    if (sellingPrice < firstStepLimit) {\r\n      // first stage\r\n      personIndexToPrice[_tokenId] = SafeMath.div(SafeMath.mul(sellingPrice, 200), 94);\r\n    } else if (sellingPrice < secondStepLimit) {\r\n      // second stage\r\n      personIndexToPrice[_tokenId] = SafeMath.div(SafeMath.mul(sellingPrice, 120), 94);\r\n    } else {\r\n      // third stage\r\n      personIndexToPrice[_tokenId] = SafeMath.div(SafeMath.mul(sellingPrice, 115), 94);\r\n    }\r\n\r\n    _transfer(oldOwner, newOwner, _tokenId);\r\n\r\n    // Pay previous tokenOwner if owner is not contract\r\n    if (oldOwner != address(this)) {\r\n      oldOwner.transfer(payment); //(1-0.06)\r\n    }\r\n\r\n    TokenSold(_tokenId, sellingPrice, personIndexToPrice[_tokenId], oldOwner, newOwner, persons[_tokenId].name);\r\n\r\n    msg.sender.transfer(purchaseExcess);\r\n  }\r\n\r\n  function priceOf(uint256 _tokenId) public view returns (uint256 price) {\r\n    return personIndexToPrice[_tokenId];\r\n  }\r\n\r\n  /// @dev Assigns a new address to act as the CEO. Only available to the current CEO.\r\n  /// @param _newCEO The address of the new CEO\r\n  function setCEO(address _newCEO) public onlyCEO {\r\n    require(_newCEO != address(0));\r\n\r\n    ceoAddress = _newCEO;\r\n  }\r\n\r\n  /// @dev Assigns a new address to act as the COO. Only available to the current COO.\r\n  /// @param _newCOO The address of the new COO\r\n  function setCOO(address _newCOO) public onlyCEO {\r\n    require(_newCOO != address(0));\r\n\r\n    cooAddress = _newCOO;\r\n  }\r\n\r\n  /// @dev Required for ERC-721 compliance.\r\n  function symbol() public pure returns (string) {\r\n    return SYMBOL;\r\n  }\r\n\r\n  /// @notice Allow pre-approved user to take ownership of a token\r\n  /// @param _tokenId The ID of the Token that can be transferred if this call succeeds.\r\n  /// @dev Required for ERC-721 compliance.\r\n  function takeOwnership(uint256 _tokenId) public {\r\n    address newOwner = msg.sender;\r\n    address oldOwner = personIndexToOwner[_tokenId];\r\n\r\n    // Safety check to prevent against an unexpected 0x0 default.\r\n    require(_addressNotNull(newOwner));\r\n\r\n    // Making sure transfer is approved\r\n    require(_approved(newOwner, _tokenId));\r\n\r\n    _transfer(oldOwner, newOwner, _tokenId);\r\n  }\r\n\r\n  /// @param _owner The owner whose celebrity tokens we are interested in.\r\n  /// @dev This method MUST NEVER be called by smart contract code. First, it's fairly\r\n  ///  expensive (it walks the entire Persons array looking for persons belonging to owner),\r\n  ///  but it also returns a dynamic array, which is only supported for web3 calls, and\r\n  ///  not contract-to-contract calls.\r\n  function tokensOfOwner(address _owner) public view returns(uint256[] ownerTokens) {\r\n    uint256 tokenCount = balanceOf(_owner);\r\n    if (tokenCount == 0) {\r\n        // Return an empty array\r\n      return new uint256[](0);\r\n    } else {\r\n      uint256[] memory result = new uint256[](tokenCount);\r\n      uint256 totalPersons = totalSupply();\r\n      uint256 resultIndex = 0;\r\n\r\n      uint256 personId;\r\n      for (personId = 0; personId <= totalPersons; personId++) {\r\n        if (personIndexToOwner[personId] == _owner) {\r\n          result[resultIndex] = personId;\r\n          resultIndex++;\r\n        }\r\n      }\r\n      return result;\r\n    }\r\n  }\r\n\r\n  /// For querying totalSupply of token\r\n  /// @dev Required for ERC-721 compliance.\r\n  function totalSupply() public view returns (uint256 total) {\r\n    return persons.length;\r\n  }\r\n\r\n  /// Owner initates the transfer of the token to another account\r\n  /// @param _to The address for the token to be transferred to.\r\n  /// @param _tokenId The ID of the Token that can be transferred if this call succeeds.\r\n  /// @dev Required for ERC-721 compliance.\r\n  function transfer(\r\n    address _to,\r\n    uint256 _tokenId\r\n  ) public {\r\n    require(_owns(msg.sender, _tokenId));\r\n    require(_addressNotNull(_to));\r\n\r\n    _transfer(msg.sender, _to, _tokenId);\r\n  }\r\n\r\n  /// Third-party initiates transfer of token from address _from to address _to\r\n  /// @param _from The address for the token to be transferred from.\r\n  /// @param _to The address for the token to be transferred to.\r\n  /// @param _tokenId The ID of the Token that can be transferred if this call succeeds.\r\n  /// @dev Required for ERC-721 compliance.\r\n  function transferFrom(\r\n    address _from,\r\n    address _to,\r\n    uint256 _tokenId\r\n  ) public {\r\n    require(_owns(_from, _tokenId));\r\n    require(_approved(_to, _tokenId));\r\n    require(_addressNotNull(_to));\r\n\r\n    _transfer(_from, _to, _tokenId);\r\n  }\r\n\r\n  /*** PRIVATE FUNCTIONS ***/\r\n  /// Safety check on _to address to prevent against an unexpected 0x0 default.\r\n  function _addressNotNull(address _to) private pure returns (bool) {\r\n    return _to != address(0);\r\n  }\r\n\r\n  /// For checking approval of transfer for address _to\r\n  function _approved(address _to, uint256 _tokenId) private view returns (bool) {\r\n    return personIndexToApproved[_tokenId] == _to;\r\n  }\r\n\r\n  /// For creating Person\r\n  function _createPerson(string _name, address _owner, uint256 _price) private {\r\n    Person memory _person = Person({\r\n      name: _name\r\n    });\r\n    uint256 newPersonId = persons.push(_person) - 1;\r\n\r\n    // It's probably never going to happen, 4 billion tokens are A LOT, but\r\n    // let's just be 100% sure we never let this happen.\r\n    require(newPersonId == uint256(uint32(newPersonId)));\r\n\r\n    Birth(newPersonId, _name, _owner);\r\n\r\n    personIndexToPrice[newPersonId] = _price;\r\n\r\n    // This will assign ownership, and also emit the Transfer event as\r\n    // per ERC721 draft\r\n    _transfer(address(0), _owner, newPersonId);\r\n  }\r\n\r\n  /// Check for token ownership\r\n  function _owns(address claimant, uint256 _tokenId) private view returns (bool) {\r\n    return claimant == personIndexToOwner[_tokenId];\r\n  }\r\n\r\n  /// For paying out balance on contract\r\n  function _payout(address _to) private {\r\n    if (_to == address(0)) {\r\n      ceoAddress.transfer(this.balance);\r\n    } else {\r\n      _to.transfer(this.balance);\r\n    }\r\n  }\r\n\r\n  /// @dev Assigns ownership of a specific Person to an address.\r\n  function _transfer(address _from, address _to, uint256 _tokenId) private {\r\n    // Since the number of persons is capped to 2^32 we can't overflow this\r\n    ownershipTokenCount[_to]++;\r\n    //transfer ownership\r\n    personIndexToOwner[_tokenId] = _to;\r\n\r\n    // When creating new persons _from is 0x0, but we can't account that address.\r\n    if (_from != address(0)) {\r\n      ownershipTokenCount[_from]--;\r\n      // clear any previously approved ownership exchange\r\n      delete personIndexToApproved[_tokenId];\r\n    }\r\n\r\n    // Emit the transfer event.\r\n    Transfer(_from, _to, _tokenId);\r\n  }\r\n}\r\nlibrary SafeMath {\r\n\r\n  /**\r\n  * @dev Multiplies two numbers, throws on overflow.\r\n  */\r\n  function mul(uint256 a, uint256 b) internal pure returns (uint256) {\r\n    if (a == 0) {\r\n      return 0;\r\n    }\r\n    uint256 c = a * b;\r\n    assert(c / a == b);\r\n    return c;\r\n  }\r\n\r\n  /**\r\n  * @dev Integer division of two numbers, truncating the quotient.\r\n  */\r\n  function div(uint256 a, uint256 b) internal pure returns (uint256) {\r\n    // assert(b > 0); // Solidity automatically throws when dividing by 0\r\n    uint256 c = a / b;\r\n    // assert(a == b * c + a % b); // There is no case in which this doesn't hold\r\n    return c;\r\n  }\r\n\r\n  /**\r\n  * @dev Substracts two numbers, throws on overflow (i.e. if subtrahend is greater than minuend).\r\n  */\r\n  function sub(uint256 a, uint256 b) internal pure returns (uint256) {\r\n    assert(b <= a);\r\n    return a - b;\r\n  }\r\n\r\n  /**\r\n  * @dev Adds two numbers, throws on overflow.\r\n  */\r\n  function add(uint256 a, uint256 b) internal pure returns (uint256) {\r\n    uint256 c = a + b;\r\n    assert(c >= a);\r\n    return c;\r\n  }\r\n}\r\n",
  "sourcePath": "c:\\Users\\marcus\\Desktop\\Coding Projects\\demo_truffle_cryptosports\\contracts\\CryptoSportsToken.sol",
  "compiler": {
    "name": "solc",
    "version": "0.4.18+commit.9cf6e910.Emscripten.clang"
  },
  "schemaVersion": "1.0.1",
  "updatedAt": "2018-02-04T09:26:21.488Z"
}